{
  "_format": "hh-sol-artifact-1",
  "contractName": "NeXacoin",
  "sourceName": "contracts/NeXacoin.sol",
  "abi": [
    {
      "inputs": [],
      "stateMutability": "nonpayable",
      "type": "constructor"
    },
    {
      "anonymous": false,
      "inputs": [
        {
          "indexed": true,
          "internalType": "address",
          "name": "owner",
          "type": "address"
        },
        {
          "indexed": true,
          "internalType": "address",
          "name": "spender",
          "type": "address"
        },
        {
          "indexed": false,
          "internalType": "uint256",
          "name": "value",
          "type": "uint256"
        }
      ],
      "name": "Approval",
      "type": "event"
    },
    {
      "anonymous": false,
      "inputs": [
        {
          "indexed": true,
          "internalType": "address",
          "name": "minter",
          "type": "address"
        }
      ],
      "name": "MinterAdded",
      "type": "event"
    },
    {
      "anonymous": false,
      "inputs": [
        {
          "indexed": true,
          "internalType": "address",
          "name": "minter",
          "type": "address"
        }
      ],
      "name": "MinterRemoved",
      "type": "event"
    },
    {
      "anonymous": false,
      "inputs": [
        {
          "indexed": true,
          "internalType": "address",
          "name": "from",
          "type": "address"
        },
        {
          "indexed": true,
          "internalType": "address",
          "name": "to",
          "type": "address"
        },
        {
          "indexed": false,
          "internalType": "uint256",
          "name": "value",
          "type": "uint256"
        }
      ],
      "name": "Transfer",
      "type": "event"
    },
    {
      "inputs": [
        {
          "internalType": "address",
          "name": "minter",
          "type": "address"
        }
      ],
      "name": "addMinter",
      "outputs": [],
      "stateMutability": "nonpayable",
      "type": "function"
    },
    {
      "inputs": [
        {
          "internalType": "address",
          "name": "",
          "type": "address"
        },
        {
          "internalType": "address",
          "name": "",
          "type": "address"
        }
      ],
      "name": "allowance",
      "outputs": [
        {
          "internalType": "uint256",
          "name": "",
          "type": "uint256"
        }
      ],
      "stateMutability": "view",
      "type": "function"
    },
    {
      "inputs": [
        {
          "internalType": "address",
          "name": "spender",
          "type": "address"
        },
        {
          "internalType": "uint256",
          "name": "amount",
          "type": "uint256"
        }
      ],
      "name": "approve",
      "outputs": [
        {
          "internalType": "bool",
          "name": "",
          "type": "bool"
        }
      ],
      "stateMutability": "nonpayable",
      "type": "function"
    },
    {
      "inputs": [
        {
          "internalType": "address",
          "name": "",
          "type": "address"
        }
      ],
      "name": "balanceOf",
      "outputs": [
        {
          "internalType": "uint256",
          "name": "",
          "type": "uint256"
        }
      ],
      "stateMutability": "view",
      "type": "function"
    },
    {
      "inputs": [
        {
          "internalType": "address",
          "name": "from",
          "type": "address"
        },
        {
          "internalType": "uint256",
          "name": "amount",
          "type": "uint256"
        }
      ],
      "name": "burn",
      "outputs": [
        {
          "internalType": "bool",
          "name": "",
          "type": "bool"
        }
      ],
      "stateMutability": "nonpayable",
      "type": "function"
    },
    {
      "inputs": [],
      "name": "decimals",
      "outputs": [
        {
          "internalType": "uint8",
          "name": "",
          "type": "uint8"
        }
      ],
      "stateMutability": "view",
      "type": "function"
    },
    {
      "inputs": [
        {
          "internalType": "address",
          "name": "to",
          "type": "address"
        },
        {
          "internalType": "uint256",
          "name": "amount",
          "type": "uint256"
        }
      ],
      "name": "mint",
      "outputs": [
        {
          "internalType": "bool",
          "name": "",
          "type": "bool"
        }
      ],
      "stateMutability": "nonpayable",
      "type": "function"
    },
    {
      "inputs": [
        {
          "internalType": "address",
          "name": "",
          "type": "address"
        }
      ],
      "name": "minters",
      "outputs": [
        {
          "internalType": "bool",
          "name": "",
          "type": "bool"
        }
      ],
      "stateMutability": "view",
      "type": "function"
    },
    {
      "inputs": [],
      "name": "name",
      "outputs": [
        {
          "internalType": "string",
          "name": "",
          "type": "string"
        }
      ],
      "stateMutability": "view",
      "type": "function"
    },
    {
      "inputs": [],
      "name": "owner",
      "outputs": [
        {
          "internalType": "address",
          "name": "",
          "type": "address"
        }
      ],
      "stateMutability": "view",
      "type": "function"
    },
    {
      "inputs": [
        {
          "internalType": "address",
          "name": "minter",
          "type": "address"
        }
      ],
      "name": "removeMinter",
      "outputs": [],
      "stateMutability": "nonpayable",
      "type": "function"
    },
    {
      "inputs": [],
      "name": "symbol",
      "outputs": [
        {
          "internalType": "string",
          "name": "",
          "type": "string"
        }
      ],
      "stateMutability": "view",
      "type": "function"
    },
    {
      "inputs": [],
      "name": "totalSupply",
      "outputs": [
        {
          "internalType": "uint256",
          "name": "",
          "type": "uint256"
        }
      ],
      "stateMutability": "view",
      "type": "function"
    },
    {
      "inputs": [
        {
          "internalType": "address",
          "name": "to",
          "type": "address"
        },
        {
          "internalType": "uint256",
          "name": "amount",
          "type": "uint256"
        }
      ],
      "name": "transfer",
      "outputs": [
        {
          "internalType": "bool",
          "name": "",
          "type": "bool"
        }
      ],
      "stateMutability": "nonpayable",
      "type": "function"
    },
    {
      "inputs": [
        {
          "internalType": "address",
          "name": "from",
          "type": "address"
        },
        {
          "internalType": "address",
          "name": "to",
          "type": "address"
        },
        {
          "internalType": "uint256",
          "name": "amount",
          "type": "uint256"
        }
      ],
      "name": "transferFrom",
      "outputs": [
        {
          "internalType": "bool",
          "name": "",
          "type": "bool"
        }
      ],
      "stateMutability": "nonpayable",
      "type": "function"
    }
  ],
  "bytecode": "0x60c060405260086080908152672732ac30b1b7b4b760c11b60a0526000906200002990826200026a565b506040805180820190915260048152634e45584160e01b60208201526001906200005490826200026a565b506002805460ff191660121790553480156200006f57600080fd5b50600680546001600160a01b031916339081179091556000818152600760205260409020805460ff19166001179055600254620000cd9190620000b79060ff16600a6200044b565b620000c7906305f5e10062000460565b620000d3565b62000490565b6001600160a01b038216620001385760405162461bcd60e51b815260206004820152602160248201527f4e4558413a2043616e6e6f74206d696e7420746f207a65726f206164647265736044820152607360f81b606482015260840160405180910390fd5b80600360008282546200014c91906200047a565b90915550506001600160a01b038216600090815260046020526040812080548392906200017b9084906200047a565b90915550506040518181526001600160a01b038316906000907fddf252ad1be2c89b69c2b068fc378daa952ba7f163c4a11628f55a4df523b3ef9060200160405180910390a35050565b634e487b7160e01b600052604160045260246000fd5b600181811c90821680620001f057607f821691505b6020821081036200021157634e487b7160e01b600052602260045260246000fd5b50919050565b601f8211156200026557600081815260208120601f850160051c81016020861015620002405750805b601f850160051c820191505b8181101562000261578281556001016200024c565b5050505b505050565b81516001600160401b03811115620002865762000286620001c5565b6200029e81620002978454620001db565b8462000217565b602080601f831160018114620002d65760008415620002bd5750858301515b600019600386901b1c1916600185901b17855562000261565b600085815260208120601f198616915b828110156200030757888601518255948401946001909101908401620002e6565b5085821015620003265787850151600019600388901b60f8161c191681555b5050505050600190811b01905550565b634e487b7160e01b600052601160045260246000fd5b600181815b808511156200038d57816000190482111562000371576200037162000336565b808516156200037f57918102915b93841c939080029062000351565b509250929050565b600082620003a65750600162000445565b81620003b55750600062000445565b8160018114620003ce5760028114620003d957620003f9565b600191505062000445565b60ff841115620003ed57620003ed62000336565b50506001821b62000445565b5060208310610133831016604e8410600b84101617156200041e575081810a62000445565b6200042a83836200034c565b806000190482111562000441576200044162000336565b0290505b92915050565b600062000459838362000395565b9392505050565b808202811582820484141762000445576200044562000336565b8082018082111562000445576200044562000336565b610dc380620004a06000396000f3fe608060405234801561001057600080fd5b50600436106100f55760003560e01c806370a08231116100975780639dc29fac116100665780639dc29fac14610212578063a9059cbb14610225578063dd62ed3e14610238578063f46eccc41461026357600080fd5b806370a08231146101ac5780638da5cb5b146101cc57806395d89b41146101f7578063983b2d56146101ff57600080fd5b806323b872dd116100d357806323b872dd146101525780633092afd514610165578063313ce5671461017a57806340c10f191461019957600080fd5b806306fdde03146100fa578063095ea7b31461011857806318160ddd1461013b575b600080fd5b610102610286565b60405161010f9190610b46565b60405180910390f35b61012b610126366004610bb0565b610314565b604051901515815260200161010f565b61014460035481565b60405190815260200161010f565b61012b610160366004610bda565b6103e3565b610178610173366004610c16565b610635565b005b6002546101879060ff1681565b60405160ff909116815260200161010f565b61012b6101a7366004610bb0565b6106a8565b6101446101ba366004610c16565b60046020526000908152604090205481565b6006546101df906001600160a01b031681565b6040516001600160a01b03909116815260200161010f565b61010261073d565b61017861020d366004610c16565b61074a565b61012b610220366004610bb0565b6107c0565b61012b610233366004610bb0565b61096c565b610144610246366004610c38565b600560209081526000928352604080842090915290825290205481565b61012b610271366004610c16565b60076020526000908152604090205460ff1681565b6000805461029390610c6b565b80601f01602080910402602001604051908101604052809291908181526020018280546102bf90610c6b565b801561030c5780601f106102e15761010080835404028352916020019161030c565b820191906000526020600020905b8154815290600101906020018083116102ef57829003601f168201915b505050505081565b60006001600160a01b03831661037d5760405162461bcd60e51b8152602060048201526024808201527f4e4558413a2043616e6e6f7420617070726f766520746f207a65726f206164646044820152637265737360e01b60648201526084015b60405180910390fd5b3360008181526005602090815260408083206001600160a01b03881680855290835292819020869055518581529192917f8c5be1e5ebec7d5bd14f71427d1e84f3dd0314c0f7b2291e5b200ac8c7c3b92591015b60405180910390a35060015b92915050565b60006001600160a01b03841661044b5760405162461bcd60e51b815260206004820152602760248201527f4e4558413a2043616e6e6f74207472616e736665722066726f6d207a65726f206044820152666164647265737360c81b6064820152608401610374565b6001600160a01b0383166104715760405162461bcd60e51b815260040161037490610ca5565b6001600160a01b0384166000908152600460205260409020548211156104d95760405162461bcd60e51b815260206004820152601a60248201527f4e4558413a20496e73756666696369656e742062616c616e63650000000000006044820152606401610374565b6001600160a01b038416600090815260056020908152604080832033845290915290205482111561055c5760405162461bcd60e51b815260206004820152602760248201527f4e4558413a205472616e7366657220616d6f756e74206578636565647320616c6044820152666c6f77616e636560c81b6064820152608401610374565b6001600160a01b03841660009081526004602052604081208054849290610584908490610d00565b90915550506001600160a01b038316600090815260046020526040812080548492906105b1908490610d13565b90915550506001600160a01b0384166000908152600560209081526040808320338452909152812080548492906105e9908490610d00565b92505081905550826001600160a01b0316846001600160a01b0316600080516020610d6e8339815191528460405161062391815260200190565b60405180910390a35060019392505050565b6006546001600160a01b0316331461065f5760405162461bcd60e51b815260040161037490610d26565b6001600160a01b038116600081815260076020526040808220805460ff19169055517fe94479a9f7e1952cc78f2d6baab678adc1b772d936c6583def489e524cb666929190a250565b3360009081526007602052604081205460ff16806106d057506006546001600160a01b031633145b61072a5760405162461bcd60e51b815260206004820152602560248201527f4e4558413a204f6e6c7920617574686f72697a6564206d696e7465722063616e6044820152640818d85b1b60da1b6064820152608401610374565b6107348383610a6f565b50600192915050565b6001805461029390610c6b565b6006546001600160a01b031633146107745760405162461bcd60e51b815260040161037490610d26565b6001600160a01b038116600081815260076020526040808220805460ff19166001179055517f6ae172837ea30b801fbfcdd4108aa1d5bf8ff775444fd70256b44e6bf3dfc3f69190a250565b6001600160a01b0382166000908152600460205260408120548211156108325760405162461bcd60e51b815260206004820152602160248201527f4e4558413a204275726e20616d6f756e7420657863656564732062616c616e636044820152606560f81b6064820152608401610374565b336001600160a01b038416146108fa576001600160a01b03831660009081526005602090815260408083203384529091529020548211156108c15760405162461bcd60e51b815260206004820152602360248201527f4e4558413a204275726e20616d6f756e74206578636565647320616c6c6f77616044820152626e636560e81b6064820152608401610374565b6001600160a01b0383166000908152600560209081526040808320338452909152812080548492906108f4908490610d00565b90915550505b6001600160a01b03831660009081526004602052604081208054849290610922908490610d00565b92505081905550816003600082825461093b9190610d00565b90915550506040518281526000906001600160a01b03851690600080516020610d6e833981519152906020016103d1565b60006001600160a01b0383166109945760405162461bcd60e51b815260040161037490610ca5565b336000908152600460205260409020548211156109f35760405162461bcd60e51b815260206004820152601a60248201527f4e4558413a20496e73756666696369656e742062616c616e63650000000000006044820152606401610374565b3360009081526004602052604081208054849290610a12908490610d00565b90915550506001600160a01b03831660009081526004602052604081208054849290610a3f908490610d13565b90915550506040518281526001600160a01b038416903390600080516020610d6e833981519152906020016103d1565b6001600160a01b038216610acf5760405162461bcd60e51b815260206004820152602160248201527f4e4558413a2043616e6e6f74206d696e7420746f207a65726f206164647265736044820152607360f81b6064820152608401610374565b8060036000828254610ae19190610d13565b90915550506001600160a01b03821660009081526004602052604081208054839290610b0e908490610d13565b90915550506040518181526001600160a01b03831690600090600080516020610d6e8339815191529060200160405180910390a35050565b600060208083528351808285015260005b81811015610b7357858101830151858201604001528201610b57565b506000604082860101526040601f19601f8301168501019250505092915050565b80356001600160a01b0381168114610bab57600080fd5b919050565b60008060408385031215610bc357600080fd5b610bcc83610b94565b946020939093013593505050565b600080600060608486031215610bef57600080fd5b610bf884610b94565b9250610c0660208501610b94565b9150604084013590509250925092565b600060208284031215610c2857600080fd5b610c3182610b94565b9392505050565b60008060408385031215610c4b57600080fd5b610c5483610b94565b9150610c6260208401610b94565b90509250929050565b600181811c90821680610c7f57607f821691505b602082108103610c9f57634e487b7160e01b600052602260045260246000fd5b50919050565b60208082526025908201527f4e4558413a2043616e6e6f74207472616e7366657220746f207a65726f206164604082015264647265737360d81b606082015260800190565b634e487b7160e01b600052601160045260246000fd5b818103818111156103dd576103dd610cea565b808201808211156103dd576103dd610cea565b60208082526027908201527f4e4558413a204f6e6c79206f776e65722063616e2063616c6c207468697320666040820152663ab731ba34b7b760c91b60608201526080019056feddf252ad1be2c89b69c2b068fc378daa952ba7f163c4a11628f55a4df523b3efa2646970667358221220c9e4b3c9edd92ae7bc11726254597afea66a6b9fdd98e38e039c50bb930c247464736f6c63430008140033",
  "linkReferences": {},
  "deployedLinkReferences": {}
}