{
  "_format": "hh-sol-artifact-1",
  "contractName": "NexEscrow",
  "sourceName": "contracts/NexEscrow.sol",
  "abi": [
    {
      "inputs": [
        {
          "internalType": "address",
          "name": "_nexaToken",
          "type": "address"
        },
        {
          "internalType": "address",
          "name": "_complianceKey",
          "type": "address"
        }
      ],
      "stateMutability": "nonpayable",
      "type": "constructor"
    },
    {
      "anonymous": false,
      "inputs": [
        {
          "indexed": false,
          "internalType": "string",
          "name": "orderId",
          "type": "string"
        },
        {
          "indexed": true,
          "internalType": "address",
          "name": "buyer",
          "type": "address"
        },
        {
          "indexed": true,
          "internalType": "address",
          "name": "seller",
          "type": "address"
        },
        {
          "indexed": false,
          "internalType": "uint256",
          "name": "amount",
          "type": "uint256"
        }
      ],
      "name": "FundsLocked",
      "type": "event"
    },
    {
      "anonymous": false,
      "inputs": [
        {
          "indexed": false,
          "internalType": "string",
          "name": "orderId",
          "type": "string"
        },
        {
          "indexed": true,
          "internalType": "address",
          "name": "buyer",
          "type": "address"
        },
        {
          "indexed": false,
          "internalType": "uint256",
          "name": "amount",
          "type": "uint256"
        }
      ],
      "name": "FundsRefunded",
      "type": "event"
    },
    {
      "anonymous": false,
      "inputs": [
        {
          "indexed": false,
          "internalType": "string",
          "name": "orderId",
          "type": "string"
        },
        {
          "indexed": true,
          "internalType": "address",
          "name": "seller",
          "type": "address"
        },
        {
          "indexed": false,
          "internalType": "uint256",
          "name": "amount",
          "type": "uint256"
        }
      ],
      "name": "FundsReleased",
      "type": "event"
    },
    {
      "inputs": [],
      "name": "complianceKey",
      "outputs": [
        {
          "internalType": "address",
          "name": "",
          "type": "address"
        }
      ],
      "stateMutability": "view",
      "type": "function"
    },
    {
      "inputs": [
        {
          "internalType": "string",
          "name": "",
          "type": "string"
        }
      ],
      "name": "escrows",
      "outputs": [
        {
          "internalType": "string",
          "name": "orderId",
          "type": "string"
        },
        {
          "internalType": "address",
          "name": "buyer",
          "type": "address"
        },
        {
          "internalType": "address",
          "name": "seller",
          "type": "address"
        },
        {
          "internalType": "uint256",
          "name": "amount",
          "type": "uint256"
        },
        {
          "internalType": "enum NexEscrow.EscrowState",
          "name": "state",
          "type": "uint8"
        }
      ],
      "stateMutability": "view",
      "type": "function"
    },
    {
      "inputs": [
        {
          "internalType": "string",
          "name": "orderId",
          "type": "string"
        },
        {
          "internalType": "string",
          "name": "action",
          "type": "string"
        }
      ],
      "name": "getSigningHash",
      "outputs": [
        {
          "internalType": "bytes32",
          "name": "",
          "type": "bytes32"
        }
      ],
      "stateMutability": "pure",
      "type": "function"
    },
    {
      "inputs": [
        {
          "internalType": "string",
          "name": "orderId",
          "type": "string"
        },
        {
          "internalType": "address",
          "name": "seller",
          "type": "address"
        },
        {
          "internalType": "uint256",
          "name": "amount",
          "type": "uint256"
        }
      ],
      "name": "lockFunds",
      "outputs": [],
      "stateMutability": "nonpayable",
      "type": "function"
    },
    {
      "inputs": [],
      "name": "nexaToken",
      "outputs": [
        {
          "internalType": "contract IERC20",
          "name": "",
          "type": "address"
        }
      ],
      "stateMutability": "view",
      "type": "function"
    },
    {
      "inputs": [],
      "name": "owner",
      "outputs": [
        {
          "internalType": "address",
          "name": "",
          "type": "address"
        }
      ],
      "stateMutability": "view",
      "type": "function"
    },
    {
      "inputs": [
        {
          "internalType": "bytes32",
          "name": "_ethSignedMessageHash",
          "type": "bytes32"
        },
        {
          "internalType": "bytes",
          "name": "_signature",
          "type": "bytes"
        }
      ],
      "name": "recoverSigner",
      "outputs": [
        {
          "internalType": "address",
          "name": "",
          "type": "address"
        }
      ],
      "stateMutability": "pure",
      "type": "function"
    },
    {
      "inputs": [
        {
          "internalType": "string",
          "name": "orderId",
          "type": "string"
        },
        {
          "internalType": "bytes",
          "name": "signature",
          "type": "bytes"
        }
      ],
      "name": "refundFunds",
      "outputs": [],
      "stateMutability": "nonpayable",
      "type": "function"
    },
    {
      "inputs": [
        {
          "internalType": "string",
          "name": "orderId",
          "type": "string"
        },
        {
          "internalType": "bytes",
          "name": "signature",
          "type": "bytes"
        }
      ],
      "name": "releaseFunds",
      "outputs": [],
      "stateMutability": "nonpayable",
      "type": "function"
    },
    {
      "inputs": [
        {
          "internalType": "address",
          "name": "_newComplianceKey",
          "type": "address"
        }
      ],
      "name": "setComplianceKey",
      "outputs": [],
      "stateMutability": "nonpayable",
      "type": "function"
    }
  ],
  "bytecode": "0x60806040523480156200001157600080fd5b50604051620014ae380380620014ae833981016040819052620000349162000147565b6001600160a01b038216620000905760405162461bcd60e51b815260206004820152601d60248201527f457363726f773a20496e76616c696420746f6b656e206164647265737300000060448201526064015b60405180910390fd5b6001600160a01b038116620000e85760405162461bcd60e51b815260206004820152601e60248201527f457363726f773a20496e76616c696420636f6d706c69616e6365206b65790000604482015260640162000087565b600080546001600160a01b039384166001600160a01b03199182161790915560018054929093169181169190911790915560028054909116331790556200017f565b80516001600160a01b03811681146200014257600080fd5b919050565b600080604083850312156200015b57600080fd5b62000166836200012a565b915062000176602084016200012a565b90509250929050565b61131f806200018f6000396000f3fe608060405234801561001057600080fd5b506004361061009e5760003560e01c80638da5cb5b116100665780638da5cb5b146101325780638de147a51461014557806397aba7f914610158578063addfba791461016b578063f5b8cff31461018c57600080fd5b80633a7679e0146100a35780633c07a672146100b85780635cc9f864146100e8578063655a1c111461010c5780636fd29dc71461011f575b600080fd5b6100b66100b1366004610d68565b61019f565b005b6001546100cb906001600160a01b031681565b6040516001600160a01b0390911681526020015b60405180910390f35b6100fb6100f6366004610e87565b61044f565b6040516100df959493929190610efe565b6100b661011a366004610d68565b610522565b6000546100cb906001600160a01b031681565b6002546100cb906001600160a01b031681565b6100b6610153366004610f93565b6107bd565b6100cb610166366004610fae565b61088f565b61017e610179366004611009565b610980565b6040519081526020016100df565b6100b661019a366004611063565b6109b3565b6000600385856040516101b39291906110bf565b90815260405190819003602001902090506001600482015460ff1660038111156101df576101df610ee8565b1461022c5760405162461bcd60e51b8152602060048201526018602482015277115cd8dc9bddce8813dc99195c881b9bdd081b1bd8dad95960421b60448201526064015b60405180910390fd5b600061028b86868080601f0160208091040260200160405190810160405280939291908181526020018383808284376000920191909152505060408051808201909152600681526514915195539160d21b602082015291506109809050565b905060006102cf8286868080601f01602080910402602001604051908101604052809392919081815260200183838082843760009201919091525061088f92505050565b60028401549091506001600160a01b03808316911614806102fd57506001546001600160a01b038281169116145b6103195760405162461bcd60e51b8152600401610223906110cf565b6004838101805460ff1916600390811790915560005460018601549186015460405163a9059cbb60e01b81526001600160a01b03938416948101949094526024840152169063a9059cbb906044016020604051808303816000875af1158015610386573d6000803e3d6000fd5b505050506040513d601f19601f820116820180604052508101906103aa9190611116565b6103f65760405162461bcd60e51b815260206004820152601e60248201527f457363726f773a20526566756e64207472616e73666572206661696c656400006044820152606401610223565b600183015460038401546040516001600160a01b03909216917f0fb51d1dbd7d93335ce8a5d5cccd7606761dd6584536a2fb1bd2e8f40d4e1a6d9161043e918b918b91611138565b60405180910390a250505050505050565b805160208183018101805160038252928201919093012091528054819061047590611171565b80601f01602080910402602001604051908101604052809291908181526020018280546104a190611171565b80156104ee5780601f106104c3576101008083540402835291602001916104ee565b820191906000526020600020905b8154815290600101906020018083116104d157829003601f168201915b5050505060018301546002840154600385015460049095015493946001600160a01b03928316949290911692509060ff1685565b6000600385856040516105369291906110bf565b90815260405190819003602001902090506001600482015460ff16600381111561056257610562610ee8565b146105aa5760405162461bcd60e51b8152602060048201526018602482015277115cd8dc9bddce8813dc99195c881b9bdd081b1bd8dad95960421b6044820152606401610223565b600061060a86868080601f0160208091040260200160405190810160405280939291908181526020018383808284376000920191909152505060408051808201909152600781526652454c4541534560c81b602082015291506109809050565b9050600061064e8286868080601f01602080910402602001604051908101604052809392919081815260200183838082843760009201919091525061088f92505050565b60018401549091506001600160a01b038083169116148061067c57506001546001600160a01b038281169116145b6106985760405162461bcd60e51b8152600401610223906110cf565b6004838101805460ff1916600290811790915560005490850154600386015460405163a9059cbb60e01b81526001600160a01b03928316948101949094526024840152169063a9059cbb906044016020604051808303816000875af1158015610705573d6000803e3d6000fd5b505050506040513d601f19601f820116820180604052508101906107299190611116565b6107755760405162461bcd60e51b815260206004820152601e60248201527f457363726f773a205061796f7574207472616e73666572206661696c656400006044820152606401610223565b600283015460038401546040516001600160a01b03909216917f5d07e479b2c57806dfc07de4b3c583b66ee18a3f13fcb9209f73f580b7f505bc9161043e918b918b91611138565b6002546001600160a01b031633146108175760405162461bcd60e51b815260206004820152601b60248201527f457363726f773a204f6e6c79206f776e65722063616e2063616c6c00000000006044820152606401610223565b6001600160a01b03811661086d5760405162461bcd60e51b815260206004820152601e60248201527f457363726f773a20496e76616c696420636f6d706c69616e6365206b657900006044820152606401610223565b600180546001600160a01b0319166001600160a01b0392909216919091179055565b60008060008084516041146108aa576000935050505061097a565b6020850151925060408501519150606085015160001a905060008660405160200161090191907f19457468657265756d205369676e6564204d6573736167653a0a3332000000008152601c810191909152603c0190565b60408051601f1981840301815282825280516020918201206000845290830180835281905260ff8516918301919091526060820186905260808201859052915060019060a0016020604051602081039080840390855afa158015610969573d6000803e3d6000fd5b505050602060405103519450505050505b92915050565b600082826040516020016109959291906111ab565b60405160208183030381529060405280519060200120905092915050565b6001600160a01b038216610a095760405162461bcd60e51b815260206004820152601e60248201527f457363726f773a20496e76616c69642073656c6c6572206164647265737300006044820152606401610223565b60008111610a6a5760405162461bcd60e51b815260206004820152602860248201527f457363726f773a20416d6f756e74206d7573742062652067726561746572207460448201526768616e207a65726f60c01b6064820152608401610223565b600060038585604051610a7e9291906110bf565b9081526040519081900360200190206004015460ff166003811115610aa557610aa5610ee8565b14610af25760405162461bcd60e51b815260206004820152601c60248201527f457363726f773a204f7264657220616c726561647920657869737473000000006044820152606401610223565b6000546040516323b872dd60e01b8152336004820152306024820152604481018390526001600160a01b03909116906323b872dd906064016020604051808303816000875af1158015610b49573d6000803e3d6000fd5b505050506040513d601f19601f82011682018060405250810190610b6d9190611116565b610bb95760405162461bcd60e51b815260206004820152601d60248201527f457363726f773a20546f6b656e207472616e73666572206661696c65640000006044820152606401610223565b6040518060a0016040528085858080601f0160208091040260200160405190810160405280939291908181526020018383808284376000920191909152505050908252503360208201526001600160a01b038416604082015260608101839052608001600181525060038585604051610c339291906110bf565b90815260405190819003602001902081518190610c509082611229565b506020820151600180830180546001600160a01b039384166001600160a01b031991821617909155604085015160028501805491909416911617909155606083015160038084019190915560808401516004840180549193909260ff19909216918490811115610cc257610cc2610ee8565b0217905550905050816001600160a01b0316336001600160a01b03167fd8432b2047489ad70bbdb975894f1f5528003e6871441ad69e2e70741f11c830868685604051610d1193929190611138565b60405180910390a350505050565b60008083601f840112610d3157600080fd5b50813567ffffffffffffffff811115610d4957600080fd5b602083019150836020828501011115610d6157600080fd5b9250929050565b60008060008060408587031215610d7e57600080fd5b843567ffffffffffffffff80821115610d9657600080fd5b610da288838901610d1f565b90965094506020870135915080821115610dbb57600080fd5b50610dc887828801610d1f565b95989497509550505050565b634e487b7160e01b600052604160045260246000fd5b600067ffffffffffffffff80841115610e0557610e05610dd4565b604051601f8501601f19908116603f01168101908282118183101715610e2d57610e2d610dd4565b81604052809350858152868686011115610e4657600080fd5b858560208301376000602087830101525050509392505050565b600082601f830112610e7157600080fd5b610e8083833560208501610dea565b9392505050565b600060208284031215610e9957600080fd5b813567ffffffffffffffff811115610eb057600080fd5b610ebc84828501610e60565b949350505050565b60005b83811015610edf578181015183820152602001610ec7565b50506000910152565b634e487b7160e01b600052602160045260246000fd5b60a08152600086518060a0840152610f1d8160c0850160208b01610ec4565b6001600160a01b0387811660208501528616604084015260608301859052601f01601f1916820160c001905060048310610f6757634e487b7160e01b600052602160045260246000fd5b8260808301529695505050505050565b80356001600160a01b0381168114610f8e57600080fd5b919050565b600060208284031215610fa557600080fd5b610e8082610f77565b60008060408385031215610fc157600080fd5b82359150602083013567ffffffffffffffff811115610fdf57600080fd5b8301601f81018513610ff057600080fd5b610fff85823560208401610dea565b9150509250929050565b6000806040838503121561101c57600080fd5b823567ffffffffffffffff8082111561103457600080fd5b61104086838701610e60565b9350602085013591508082111561105657600080fd5b50610fff85828601610e60565b6000806000806060858703121561107957600080fd5b843567ffffffffffffffff81111561109057600080fd5b61109c87828801610d1f565b90955093506110af905060208601610f77565b9396929550929360400135925050565b8183823760009101908152919050565b60208082526027908201527f457363726f773a20496e76616c696420617574686f72697a6174696f6e207369604082015266676e617475726560c81b606082015260800190565b60006020828403121561112857600080fd5b81518015158114610e8057600080fd5b604081528260408201528284606083013760006060848301015260006060601f19601f8601168301019050826020830152949350505050565b600181811c9082168061118557607f821691505b6020821081036111a557634e487b7160e01b600052602260045260246000fd5b50919050565b600083516111bd818460208801610ec4565b8351908301906111d1818360208801610ec4565b01949350505050565b601f82111561122457600081815260208120601f850160051c810160208610156112015750805b601f850160051c820191505b818110156112205782815560010161120d565b5050505b505050565b815167ffffffffffffffff81111561124357611243610dd4565b611257816112518454611171565b846111da565b602080601f83116001811461128c57600084156112745750858301515b600019600386901b1c1916600185901b178555611220565b600085815260208120601f198616915b828110156112bb5788860151825594840194600190910190840161129c565b50858210156112d95787850151600019600388901b60f8161c191681555b5050505050600190811b0190555056fea2646970667358221220a5268cabd5ddc28fe4c3631f661a9b707a9020777d04acbb9448134ecabd6dd364736f6c63430008140033",
  "linkReferences": {},
  "deployedLinkReferences": {}
}